{
  "_format": "hh-sol-artifact-1",
  "contractName": "Raffle",
  "sourceName": "contracts/Raffle.sol",
  "abi": [
    {
      "inputs": [
        {
          "internalType": "address",
          "name": "vrfCoordinatorV2",
          "type": "address"
        },
        {
          "internalType": "uint256",
          "name": "entranceFee",
          "type": "uint256"
        },
        {
          "internalType": "bytes32",
          "name": "gasLane",
          "type": "bytes32"
        },
        {
          "internalType": "uint64",
          "name": "subscriptionId",
          "type": "uint64"
        },
        {
          "internalType": "uint32",
          "name": "callbackGasLimit",
          "type": "uint32"
        },
        {
          "internalType": "uint256",
          "name": "interval",
          "type": "uint256"
        }
      ],
      "stateMutability": "nonpayable",
      "type": "constructor"
    },
    {
      "inputs": [
        {
          "internalType": "address",
          "name": "have",
          "type": "address"
        },
        {
          "internalType": "address",
          "name": "want",
          "type": "address"
        }
      ],
      "name": "OnlyCoordinatorCanFulfill",
      "type": "error"
    },
    {
      "inputs": [],
      "name": "Raffel__TransferFailed",
      "type": "error"
    },
    {
      "inputs": [],
      "name": "Raffle__NotEnoughETHEnterted",
      "type": "error"
    },
    {
      "inputs": [],
      "name": "Raffle__NotOpen",
      "type": "error"
    },
    {
      "inputs": [
        {
          "internalType": "uint256",
          "name": "currentBalance",
          "type": "uint256"
        },
        {
          "internalType": "uint256",
          "name": "numPlayers",
          "type": "uint256"
        },
        {
          "internalType": "uint256",
          "name": "raffleState",
          "type": "uint256"
        }
      ],
      "name": "Raffle__UpkeepNotNeeded",
      "type": "error"
    },
    {
      "anonymous": false,
      "inputs": [
        {
          "indexed": true,
          "internalType": "address",
          "name": "player",
          "type": "address"
        }
      ],
      "name": "RaffelEnter",
      "type": "event"
    },
    {
      "anonymous": false,
      "inputs": [
        {
          "indexed": true,
          "internalType": "uint256",
          "name": "requestId",
          "type": "uint256"
        }
      ],
      "name": "RequestedRaffelWinner",
      "type": "event"
    },
    {
      "anonymous": false,
      "inputs": [
        {
          "indexed": true,
          "internalType": "address",
          "name": "Winner",
          "type": "address"
        }
      ],
      "name": "WinnerPicked",
      "type": "event"
    },
    {
      "inputs": [
        {
          "internalType": "bytes",
          "name": "",
          "type": "bytes"
        }
      ],
      "name": "checkUpkeep",
      "outputs": [
        {
          "internalType": "bool",
          "name": "upkeepNeeded",
          "type": "bool"
        },
        {
          "internalType": "bytes",
          "name": "",
          "type": "bytes"
        }
      ],
      "stateMutability": "nonpayable",
      "type": "function"
    },
    {
      "inputs": [],
      "name": "enterRaffle",
      "outputs": [],
      "stateMutability": "payable",
      "type": "function"
    },
    {
      "inputs": [],
      "name": "getEntranceFee",
      "outputs": [
        {
          "internalType": "uint256",
          "name": "",
          "type": "uint256"
        }
      ],
      "stateMutability": "view",
      "type": "function"
    },
    {
      "inputs": [],
      "name": "getInterval",
      "outputs": [
        {
          "internalType": "uint256",
          "name": "",
          "type": "uint256"
        }
      ],
      "stateMutability": "view",
      "type": "function"
    },
    {
      "inputs": [],
      "name": "getLastTimeStamp",
      "outputs": [
        {
          "internalType": "uint256",
          "name": "",
          "type": "uint256"
        }
      ],
      "stateMutability": "view",
      "type": "function"
    },
    {
      "inputs": [],
      "name": "getNumWords",
      "outputs": [
        {
          "internalType": "uint256",
          "name": "",
          "type": "uint256"
        }
      ],
      "stateMutability": "pure",
      "type": "function"
    },
    {
      "inputs": [],
      "name": "getNumberOfPlayers",
      "outputs": [
        {
          "internalType": "uint256",
          "name": "",
          "type": "uint256"
        }
      ],
      "stateMutability": "view",
      "type": "function"
    },
    {
      "inputs": [
        {
          "internalType": "uint256",
          "name": "index",
          "type": "uint256"
        }
      ],
      "name": "getPlayer",
      "outputs": [
        {
          "internalType": "address",
          "name": "",
          "type": "address"
        }
      ],
      "stateMutability": "view",
      "type": "function"
    },
    {
      "inputs": [],
      "name": "getRaffleState",
      "outputs": [
        {
          "internalType": "enum Raffle.RaffelState",
          "name": "",
          "type": "uint8"
        }
      ],
      "stateMutability": "view",
      "type": "function"
    },
    {
      "inputs": [],
      "name": "getRecentWinner",
      "outputs": [
        {
          "internalType": "address",
          "name": "",
          "type": "address"
        }
      ],
      "stateMutability": "view",
      "type": "function"
    },
    {
      "inputs": [],
      "name": "getRequestConfirmations",
      "outputs": [
        {
          "internalType": "uint256",
          "name": "",
          "type": "uint256"
        }
      ],
      "stateMutability": "pure",
      "type": "function"
    },
    {
      "inputs": [
        {
          "internalType": "bytes",
          "name": "",
          "type": "bytes"
        }
      ],
      "name": "performUpkeep",
      "outputs": [],
      "stateMutability": "nonpayable",
      "type": "function"
    },
    {
      "inputs": [
        {
          "internalType": "uint256",
          "name": "requestId",
          "type": "uint256"
        },
        {
          "internalType": "uint256[]",
          "name": "randomWords",
          "type": "uint256[]"
        }
      ],
      "name": "rawFulfillRandomWords",
      "outputs": [],
      "stateMutability": "nonpayable",
      "type": "function"
    }
  ],
  "bytecode": "0x6101606040523480156200001257600080fd5b5060405162001873380380620018738339818101604052810190620000389190620001ad565b858073ffffffffffffffffffffffffffffffffffffffff1660808173ffffffffffffffffffffffffffffffffffffffff1660601b81525050508460a081815250508573ffffffffffffffffffffffffffffffffffffffff1660c08173ffffffffffffffffffffffffffffffffffffffff1660601b815250508360e081815250508267ffffffffffffffff166101008167ffffffffffffffff1660c01b815250508163ffffffff166101208163ffffffff1660e01b815250506000600160146101000a81548160ff02191690836001811115620001195762000118620002b5565b5b0217905550426002819055508061014081815250505050505050506200036b565b6000815190506200014b81620002e9565b92915050565b600081519050620001628162000303565b92915050565b60008151905062000179816200031d565b92915050565b600081519050620001908162000337565b92915050565b600081519050620001a78162000351565b92915050565b60008060008060008060c08789031215620001cd57620001cc620002e4565b5b6000620001dd89828a016200013a565b9650506020620001f089828a0162000168565b95505060406200020389828a0162000151565b94505060606200021689828a0162000196565b93505060806200022989828a016200017f565b92505060a06200023c89828a0162000168565b9150509295509295509295565b6000620002568262000267565b9050919050565b6000819050919050565b600073ffffffffffffffffffffffffffffffffffffffff82169050919050565b6000819050919050565b600063ffffffff82169050919050565b600067ffffffffffffffff82169050919050565b7f4e487b7100000000000000000000000000000000000000000000000000000000600052602160045260246000fd5b600080fd5b620002f48162000249565b81146200030057600080fd5b50565b6200030e816200025d565b81146200031a57600080fd5b50565b620003288162000287565b81146200033457600080fd5b50565b620003428162000291565b81146200034e57600080fd5b50565b6200035c81620002a1565b81146200036857600080fd5b50565b60805160601c60a05160c05160601c60e0516101005160c01c6101205160e01c6101405161148c620003e7600039600081816107ea01526108580152600061069b01526000610678015260006106570152600061061b0152600081816102fa01526103f7015260008181610337015261038b015261148c6000f3fe6080604052600436106100c25760003560e01c806353a2c19a1161007f57806391ad27b41161005957806391ad27b414610238578063c1c244e814610263578063e55ae4e81461028e578063fd6673f5146102cb576100c2565b806353a2c19a146101a45780635f1b0fd8146101cf5780636e04ff0d146101fa576100c2565b806309bc33a7146100c7578063115cbaf5146100f25780631fe543e31461011d5780632cfcc539146101465780634585e33b14610150578063473f1ddc14610179575b600080fd5b3480156100d357600080fd5b506100dc6102f6565b6040516100e99190611080565b60405180910390f35b3480156100fe57600080fd5b5061010761031e565b6040516101149190611065565b60405180910390f35b34801561012957600080fd5b50610144600480360381019061013f9190610e4a565b610335565b005b61014e6103f5565b005b34801561015c57600080fd5b5061017760048036038101906101729190610d5a565b610564565b005b34801561018557600080fd5b5061018e610763565b60405161019b9190610f9e565b60405180910390f35b3480156101b057600080fd5b506101b961078d565b6040516101c69190611080565b60405180910390f35b3480156101db57600080fd5b506101e461079a565b6040516101f19190611080565b60405180910390f35b34801561020657600080fd5b50610221600480360381019061021c9190610da7565b6107a7565b60405161022f929190610fe2565b60405180910390f35b34801561024457600080fd5b5061024d610854565b60405161025a9190611080565b60405180910390f35b34801561026f57600080fd5b5061027861087c565b6040516102859190611080565b60405180910390f35b34801561029a57600080fd5b506102b560048036038101906102b09190610df0565b610886565b6040516102c29190610f9e565b60405180910390f35b3480156102d757600080fd5b506102e06108cd565b6040516102ed9190611080565b60405180910390f35b60007f0000000000000000000000000000000000000000000000000000000000000000905090565b6000600160149054906101000a900460ff16905090565b7f000000000000000000000000000000000000000000000000000000000000000073ffffffffffffffffffffffffffffffffffffffff163373ffffffffffffffffffffffffffffffffffffffff16146103e757337f00000000000000000000000000000000000000000000000000000000000000006040517f1cf993f40000000000000000000000000000000000000000000000000000000081526004016103de929190610fb9565b60405180910390fd5b6103f182826108d9565b5050565b7f000000000000000000000000000000000000000000000000000000000000000034101561044f576040517fc7e6bda700000000000000000000000000000000000000000000000000000000815260040160405180910390fd5b600060018111156104635761046261136c565b5b600160149054906101000a900460ff1660018111156104855761048461136c565b5b146104bc576040517f1425571c00000000000000000000000000000000000000000000000000000000815260040160405180910390fd5b6000339080600181540180825580915050600190039060005260206000200160009091909190916101000a81548173ffffffffffffffffffffffffffffffffffffffff021916908373ffffffffffffffffffffffffffffffffffffffff1602179055503373ffffffffffffffffffffffffffffffffffffffff167f7576dfa1d70e42585bbb6b7a5765babb3ee338a059e83b51eab753df95c7625560405160405180910390a2565b600061057e604051806020016040528060008152506107a7565b509050806105ed5747600080549050600160149054906101000a900460ff1660018111156105af576105ae61136c565b5b6040517f584327aa0000000000000000000000000000000000000000000000000000000081526004016105e49392919061109b565b60405180910390fd5b60018060146101000a81548160ff021916908360018111156106125761061161136c565b5b021790555060007f000000000000000000000000000000000000000000000000000000000000000073ffffffffffffffffffffffffffffffffffffffff16635d3b1d307f00000000000000000000000000000000000000000000000000000000000000007f000000000000000000000000000000000000000000000000000000000000000060037f000000000000000000000000000000000000000000000000000000000000000060016040518663ffffffff1660e01b81526004016106dc959493929190611012565b602060405180830381600087803b1580156106f657600080fd5b505af115801561070a573d6000803e3d6000fd5b505050506040513d601f19601f8201168201806040525081019061072e9190610e1d565b9050807f9cd72631871dff14bbc84976a39c2bca5d943f61f72884a8f331a889778f2c3160405160405180910390a250505050565b6000600160009054906101000a900473ffffffffffffffffffffffffffffffffffffffff16905090565b6000600161ffff16905090565b6000600361ffff16905090565b600060606000600160149054906101000a900460ff1660018111156107cf576107ce61136c565b5b600060018111156107e3576107e261136c565b5b14905060007f000000000000000000000000000000000000000000000000000000000000000060025442610817919061117b565b119050600080600080549050119050600080471190508280156108375750835b80156108405750805b80156108495750815b955050505050915091565b60007f0000000000000000000000000000000000000000000000000000000000000000905090565b6000600254905090565b600080828154811061089b5761089a61139b565b5b9060005260206000200160009054906101000a900473ffffffffffffffffffffffffffffffffffffffff169050919050565b60008080549050905090565b60008080549050826000815181106108f4576108f361139b565b5b602002602001015161090691906112dd565b9050600080828154811061091d5761091c61139b565b5b9060005260206000200160009054906101000a900473ffffffffffffffffffffffffffffffffffffffff16905080600160006101000a81548173ffffffffffffffffffffffffffffffffffffffff021916908373ffffffffffffffffffffffffffffffffffffffff1602179055506000600160146101000a81548160ff021916908360018111156109b1576109b061136c565b5b0217905550600067ffffffffffffffff8111156109d1576109d06113ca565b5b6040519080825280602002602001820160405280156109ff5781602001602082028036833780820191505090505b5060009080519060200190610a15929190610b25565b5060008173ffffffffffffffffffffffffffffffffffffffff1647604051610a3c90610f89565b60006040518083038185875af1925050503d8060008114610a79576040519150601f19603f3d011682016040523d82523d6000602084013e610a7e565b606091505b5050905080610ab9576040517f3c30e74a00000000000000000000000000000000000000000000000000000000815260040160405180910390fd5b600160009054906101000a900473ffffffffffffffffffffffffffffffffffffffff1673ffffffffffffffffffffffffffffffffffffffff167f5b690ec4a06fe979403046eaeea5b3ce38524683c3001f662c8b5a829632f7df60405160405180910390a25050505050565b828054828255906000526020600020908101928215610b9e579160200282015b82811115610b9d5782518260006101000a81548173ffffffffffffffffffffffffffffffffffffffff021916908373ffffffffffffffffffffffffffffffffffffffff16021790555091602001919060010190610b45565b5b509050610bab9190610baf565b5090565b5b80821115610bc8576000816000905550600101610bb0565b5090565b6000610bdf610bda846110f7565b6110d2565b90508083825260208201905082856020860282011115610c0257610c01611403565b5b60005b85811015610c325781610c188882610d30565b845260208401935060208301925050600181019050610c05565b5050509392505050565b6000610c4f610c4a84611123565b6110d2565b905082815260208101848484011115610c6b57610c6a611408565b5b610c7684828561126a565b509392505050565b600082601f830112610c9357610c926113fe565b5b8135610ca3848260208601610bcc565b91505092915050565b60008083601f840112610cc257610cc16113fe565b5b8235905067ffffffffffffffff811115610cdf57610cde6113f9565b5b602083019150836001820283011115610cfb57610cfa611403565b5b9250929050565b600082601f830112610d1757610d166113fe565b5b8135610d27848260208601610c3c565b91505092915050565b600081359050610d3f8161143f565b92915050565b600081519050610d548161143f565b92915050565b60008060208385031215610d7157610d70611412565b5b600083013567ffffffffffffffff811115610d8f57610d8e61140d565b5b610d9b85828601610cac565b92509250509250929050565b600060208284031215610dbd57610dbc611412565b5b600082013567ffffffffffffffff811115610ddb57610dda61140d565b5b610de784828501610d02565b91505092915050565b600060208284031215610e0657610e05611412565b5b6000610e1484828501610d30565b91505092915050565b600060208284031215610e3357610e32611412565b5b6000610e4184828501610d45565b91505092915050565b60008060408385031215610e6157610e60611412565b5b6000610e6f85828601610d30565b925050602083013567ffffffffffffffff811115610e9057610e8f61140d565b5b610e9c85828601610c7e565b9150509250929050565b610eaf816111af565b82525050565b610ebe816111c1565b82525050565b610ecd816111cd565b82525050565b6000610ede82611154565b610ee8818561115f565b9350610ef8818560208601611279565b610f0181611417565b840191505092915050565b610f1581611246565b82525050565b6000610f28600083611170565b9150610f3382611428565b600082019050919050565b610f47816111ea565b82525050565b610f5681611258565b82525050565b610f6581611218565b82525050565b610f7481611222565b82525050565b610f8381611232565b82525050565b6000610f9482610f1b565b9150819050919050565b6000602082019050610fb36000830184610ea6565b92915050565b6000604082019050610fce6000830185610ea6565b610fdb6020830184610ea6565b9392505050565b6000604082019050610ff76000830185610eb5565b81810360208301526110098184610ed3565b90509392505050565b600060a0820190506110276000830188610ec4565b6110346020830187610f7a565b6110416040830186610f3e565b61104e6060830185610f6b565b61105b6080830184610f4d565b9695505050505050565b600060208201905061107a6000830184610f0c565b92915050565b60006020820190506110956000830184610f5c565b92915050565b60006060820190506110b06000830186610f5c565b6110bd6020830185610f5c565b6110ca6040830184610f5c565b949350505050565b60006110dc6110ed565b90506110e882826112ac565b919050565b6000604051905090565b600067ffffffffffffffff821115611112576111116113ca565b5b602082029050602081019050919050565b600067ffffffffffffffff82111561113e5761113d6113ca565b5b61114782611417565b9050602081019050919050565b600081519050919050565b600082825260208201905092915050565b600081905092915050565b600061118682611218565b915061119183611218565b9250828210156111a4576111a361130e565b5b828203905092915050565b60006111ba826111f8565b9050919050565b60008115159050919050565b6000819050919050565b60008190506111e58261142b565b919050565b600061ffff82169050919050565b600073ffffffffffffffffffffffffffffffffffffffff82169050919050565b6000819050919050565b600063ffffffff82169050919050565b600067ffffffffffffffff82169050919050565b6000611251826111d7565b9050919050565b6000611263826111ea565b9050919050565b82818337600083830152505050565b60005b8381101561129757808201518184015260208101905061127c565b838111156112a6576000848401525b50505050565b6112b582611417565b810181811067ffffffffffffffff821117156112d4576112d36113ca565b5b80604052505050565b60006112e882611218565b91506112f383611218565b9250826113035761130261133d565b5b828206905092915050565b7f4e487b7100000000000000000000000000000000000000000000000000000000600052601160045260246000fd5b7f4e487b7100000000000000000000000000000000000000000000000000000000600052601260045260246000fd5b7f4e487b7100000000000000000000000000000000000000000000000000000000600052602160045260246000fd5b7f4e487b7100000000000000000000000000000000000000000000000000000000600052603260045260246000fd5b7f4e487b7100000000000000000000000000000000000000000000000000000000600052604160045260246000fd5b600080fd5b600080fd5b600080fd5b600080fd5b600080fd5b600080fd5b6000601f19601f8301169050919050565b50565b6002811061143c5761143b61136c565b5b50565b61144881611218565b811461145357600080fd5b5056fea2646970667358221220495861f838faba514ff2518dd06a9f1dfdc88f9a01f5e52ce731e82959af241a64736f6c63430008070033",
  "linkReferences": {},
  "deployedLinkReferences": {}
}